:020000040800F2
:1000000000280020E9110008791100087F1100087C
:10001000851100088B1100089111000800000000F4
:100020000000000000000000000000009711000820
:10003000A311000800000000AF110008BB11000868
:100040003112000831120008311200083112000884
:100050003112000831120008311200083112000874
:100060003112000831120008311200083112000864
:100070003112000831120008311200083112000854
:100080003112000831120008311200083112000844
:100090003112000831120008311200083112000834
:1000A0003112000831120008311200083112000824
:1000B000C9110008311200080000000031120008C8
:1000C000311200080000000000000000311200089A
:1000D000000000003112000831120008000000008A
:1000E000311200083112000831120008000000002F
:1000F0000000000000000000000000000000000000
:0C01000000000000000000005FF808F1A3
:10010C0010B5054C237833B9044B13B10448AFF345
:10011C0000800123237010BD0C00002000000000A3
:10012C004C28000808B5034B1BB103490348AFF337
:10013C00008008BD00000000100000204C280008C2
:10014C0090B597B00CAF01F06FF800F011F900F01A
:10015C0097F900F049F9814801F0AEFF00216420C5
:10016C0000F064FF0121322000F060FF02210A2020
:10017C0000F05CFF0F237B6208233B623223FB61A0
:10018C0004233B61764B3C460FCB84E80F000023E5
:10019C00BB6100237B61734B1B68012B23D10021B6
:1001AC00642000F043FF20216F4801F03FFB102139
:1001BC006D4801F03BFBFB690133FB61FB693B2B99
:1001CC0004DD0023FB613B6A01333B623B6A3B2B42
:1001DC0004DD00233B627B6A01337B627B6A172B55
:1001EC0001DD00237B623B461A46396A786A00F0CF
:1001FC0097FB5C4B5B68012B40F09A800121192026
:10020C0000F014FFBA693B699A4201DB0023BB6121
:10021C00BB69032B66D801A252F823F039020008FF
:10022C006702000895020008C30200080022402162
:10023C004D4801F0E3FA012280214B4801F0DEFA2F
:10024C0001224FF48071484801F0D8FA01224FF492
:10025C000071454801F0D2FA45E0012240214248A4
:10026C0001F0CCFA002280213F4801F0C7FA0122AC
:10027C004FF480713C4801F0C1FA01224FF4007137
:10028C00394801F0BBFA2EE001224021364801F03A
:10029C00B5FA01228021344801F0B0FA00224FF463
:1002AC008071314801F0AAFA01224FF400712E48F6
:1002BC0001F0A4FA17E0012240212B4801F09EFA2C
:1002CC0001228021284801F099FA01224FF4807113
:1002DC00254801F093FA00224FF40071224801F0F6
:1002EC008DFA00E000BFBB699B0007F128021344A4
:1002FC0053F8280C40230A931C4B09932023089392
:10030C001A4B079310230693184B05930823049359
:10031C00164B039304230293144B01930223009373
:10032C00124B0122114900F019F9BB690133BB6171
:10033C000C4B9B68012B7FF42EAF0221012000F0A7
:10034C0075FE786900F050FB7B6901337B617B693A
:10035C00072B7FF720AF00237B611CE7B800002040
:10036C00642800087000002000080140000C0140C7
:10037C0080B590B000AF07F1180328220021184671
:10038C0002F056FA3B1D00221A605A609A60DA603D
:10039C001A610223BB610123BB621023FB620023A1
:1003AC007B6307F11803184601F05AFA0346002B39
:1003BC0001D000F013FB0F237B600023BB600023F4
:1003CC00FB6000233B6100237B613B1D0021184631
:1003DC0001F0C6FC0346002B01D000F0FFFA00BF71
:1003EC004037BD4680BD000080B586B000AF07F138
:1003FC00080300221A605A609A60DA603B460022B9
:10040C001A605A601D4B4FF080421A601B4B41F62C
:10041C003F725A60194B00229A60184B0922DA601D
:10042C00164B00221A61154B00229A61134801F0F9
:10043C00F3FD0346002B01D000F0D0FA4FF48053AB
:10044C00BB6007F1080319460C4801F089FF03460D
:10045C00002B01D000F0C2FA00233B6000237B602C
:10046C003B461946054802F055F90346002B01D0CE
:10047C0000F0B4FA00BF1837BD4680BDB8000020AC
:10048C0080B586B000AF07F1080300221A605A60ED
:10049C009A60DA60294B9B69284A43F00403936104
:1004AC00264B9B6903F004037B607B68234B9B69A1
:1004BC00224A43F008039361204B9B6903F0080325
:1004CC003B603B6800224FF6FC711D4801F096F929
:1004DC0000224FF67F611B4801F090F94FF6FC7338
:1004EC00BB600123FB6000233B6102237B6107F1AE
:1004FC0008031946124801F007F84FF67F63BB60FA
:10050C000123FB6000233B6102237B6107F108039D
:10051C0019460C4800F0F8FF4FF48073BB600023C1
:10052C00FB6000233B6107F108031946054800F006
:10053C00EBFF00BF1837BD4680BD00BF0010024066
:10054C0000080140000C014080B582B000AF78601B
:10055C0000F084FD00BF0837BD4680BD80B584B077
:10056C0000AFF860B9603B601346FB80FB68092B59
:10057C0000F2D08101A252F823F000BFB1050008AF
:10058C000906000861060008B906000811070008F2
:10059C0069070008C107000819080008710800085D
:1005AC00C9080008FB8800221946B86801F026F932
:1005BC003B8B00221946386801F020F93B8C002255
:1005CC001946F86901F01AF93B8D00221946786A30
:1005DC0001F014F93B8E00221946F86A01F00EF96D
:1005EC003B8F00221946786B01F008F9B7F84030C0
:1005FC0001221946F86B01F001F98CE1FB8801220C
:10060C001946B86801F0FAF83B8B00221946386895
:10061C0001F0F4F83B8C00221946F86901F0EEF871
:10062C003B8D01221946786A01F0E8F83B8E0122D5
:10063C001946F86A01F0E2F83B8F01221946786BF3
:10064C0001F0DCF8B7F8403001221946F86B01F0E4
:10065C00D5F860E1FB8800221946B86801F0CEF8A5
:10066C003B8B00221946386801F0C8F83B8C0122FC
:10067C001946F86901F0C2F83B8D00221946786AD8
:10068C0001F0BCF83B8E00221946F86A01F0B6F86E
:10069C003B8F01221946786B01F0B0F8B7F8403067
:1006AC0000221946F86B01F0A9F834E1FB8800220E
:1006BC001946B86801F0A2F83B8B0022194638683D
:1006CC0001F09CF83B8C00221946F86901F096F871
:1006DC003B8D00221946786A01F090F83B8E01227E
:1006EC001946F86A01F08AF83B8F01221946786B9B
:1006FC0001F084F8B7F8403000221946F86B01F08D
:10070C007DF808E1FB8801221946B86801F076F8FB
:10071C003B8B00221946386801F070F83B8C0022A4
:10072C001946F86901F06AF83B8D01221946786A7E
:10073C0001F064F83B8E01221946F86A01F05EF86C
:10074C003B8F00221946786B01F058F8B7F840300F
:10075C0000221946F86B01F051F8DCE0FB8800220E
:10076C001946B86801F04AF83B8B012219463868E3
:10077C0001F044F83B8C00221946F86901F03EF870
:10078C003B8D00221946786A01F038F83B8E012225
:10079C001946F86A01F032F83B8F00221946786B43
:1007AC0001F02CF8B7F8403000221946F86B01F034
:1007BC0025F8B0E0FB8800221946B86801F01EF855
:1007CC003B8B01221946386801F018F83B8C00224B
:1007DC001946F86901F012F83B8D00221946786A27
:1007EC0001F00CF83B8E00221946F86A01F006F86D
:1007FC003B8F00221946786B01F000F8B7F84030B7
:10080C0000221946F86B00F0F9FF84E0FB88002207
:10081C001946B86800F0F2FF3B8B00221946386885
:10082C0000F0ECFF3B8C00221946F86900F0E6FF63
:10083C003B8D01221946786A00F0E0FF3B8E0122C5
:10084C001946F86A00F0DAFF3B8F01221946786BE3
:10085C0000F0D4FFB7F8403001221946F86B00F0D5
:10086C00CDFF58E0FB8800221946B86800F0C6FF9F
:10087C003B8B00221946386800F0C0FF3B8C0022ED
:10088C001946F86900F0BAFF3B8D00221946786AC8
:10089C0000F0B4FF3B8E00221946F86A00F0AEFF60
:1008AC003B8F00221946786B00F0A8FFB7F8403058
:1008BC0000221946F86B00F0A1FF2CE0FB88002207
:1008CC001946B86800F09AFF3B8B0022194638682D
:1008DC0000F094FF3B8C00221946F86900F08EFF63
:1008EC003B8D00221946786A00F088FF3B8E01226E
:1008FC001946F86A00F082FF3B8F00221946786B8C
:10090C0000F07CFFB7F8403000221946F86B00F07D
:10091C0075FF00E000BF00BF1037BD4680BD00BFB3
:10092C0080B485B000AFF860B9607A60FB68002BCA
:10093C000ADBFB68092B07DC7B6800221A607B68EA
:10094C000433FA681A6017E0FB68234A82FB03122F
:10095C009210DB17D21A7B681A607B68181DF96835
:10096C001D4B83FB01239A10CB17D21A13469B0005
:10097C0013445B00CA1A0260BB68002B0BDBBB681C
:10098C00092B08DC7B68083300221A607B680C3367
:10099C00BA681A601BE07B6803F10802BB680E4959
:1009AC0081FB03018910DB17CB1A13607B6803F101
:1009BC000C00B968084B83FB01239A10CB17D21A91
:1009CC0013469B0013445B00CA1A026000BF00BFB1
:1009DC001437BD4680BC70476766666680B400AF4E
:1009EC0072B600BFFEE7000080B582B000AF786041
:1009FC007B68072B00F2108301A252F823F000BF92
:100A0C002D0A0008EB0A0008A90B0008670C000867
:100A1C002D0D0008EB0D0008A90E0008670F00084B
:100A2C0001220421BC4800F0E9FE01220821BA4849
:100A3C0000F0E4FE01224FF48061B74800F0DEFEC6
:100A4C0000224FF40061B44800F0D8FE01224FF4AC
:100A5C008051B14800F0D2FE01224FF40051AE4853
:100A6C0000F0CCFE01224FF48041AB4800F0C6FEF2
:100A7C0001224FF40041A84800F0C0FE00224FF4C0
:100A8C008071A64800F0BAFE00224FF40071A34812
:100A9C0000F0B4FE00224FF48061A04800F0AEFEDE
:100AAC0000224FF400619D4800F0A8FE00224FF494
:100ABC0080519A4800F0A2FE00224FF40051974852
:100ACC0000F09CFE00224FF48041944800F096FE0A
:100ADC0000224FF40041914800F090FE9DE200226C
:100AEC0004218D4800F08AFE012208218A4800F07A
:100AFC0085FE00224FF48061874800F07FFE0022C3
:100B0C004FF40061844800F079FE00224FF48051CC
:100B1C00814800F073FE00224FF400517E4800F033
:100B2C006DFE00224FF480417B4800F067FE0022EE
:100B3C004FF40041784800F061FE00224FF48071C0
:100B4C00764800F05BFE00224FF40071734800F011
:100B5C0055FE00224FF48061704800F04FFE0022D9
:100B6C004FF400616D4800F049FE00224FF48051B3
:100B7C006A4800F043FE00224FF40051674800F031
:100B8C003DFE00224FF48041644800F037FE002205
:100B9C004FF40041614800F031FE3EE20122042195
:100BAC005D4800F02BFE012208215B4800F026FE78
:100BBC0000224FF48061584800F020FE01224FF4CF
:100BCC000061554800F01AFE01224FF48051524842
:100BDC0000F014FE01224FF400514F4800F00EFEBD
:100BEC0001224FF480414C4800F008FE01224FF4E2
:100BFC000041494800F002FE00224FF48071474842
:100C0C0000F0FCFD01224FF40071444800F0F6FDA9
:100C1C0001224FF48061414800F0F0FD01224FF4B5
:100C2C0000613E4800F0EAFD00224FF480513B4841
:100C3C0000F0E4FD01224FF40051384800F0DEFDD5
:100C4C0001224FF48041354800F0D8FD01224FF4C9
:100C5C000041324800F0D2FDDFE1012204212E4890
:100C6C0000F0CCFD012208212B4800F0C7FD012229
:100C7C004FF48061284800F0C1FD00224FF4006160
:100C8C00254800F0BBFD01224FF48051224800F0B2
:100C9C00B5FD01224FF400511F4800F0AFFD0122B9
:100CAC004FF480411C4800F0A9FD01224FF4004193
:100CBC00194800F0A3FD00224FF48071174800F092
:100CCC009DFD01224FF40071144800F097FD0122A4
:100CDC004FF48061114800F091FD01224FF4006146
:100CEC000E4800F08BFD00224FF480510B4800F0B1
:100CFC0085FD01224FF40051084800F07FFD0122D0
:100D0C004FF48041054800F079FD01224FF4004179
:100D1C00024800F073FD80E100080140000C014026
:100D2C0001220421BF4800F069FD01220821BD48C1
:100D3C0000F064FD01224FF48061BA4800F05EFDC2
:100D4C0001224FF40061B74800F058FD00224FF427
:100D5C008051B44800F052FD01224FF40051B148CB
:100D6C0000F04CFD01224FF48041AE4800F046FDEE
:100D7C0001224FF40041AB4800F040FD00224FF43B
:100D8C008071A94800F03AFD01224FF40071A64889
:100D9C0000F034FD01224FF48061A34800F02EFDD9
:100DAC0001224FF40061A04800F028FD00224FF40E
:100DBC0080519D4800F022FD01224FF400519A48C9
:100DCC0000F01CFD01224FF48041974800F016FD05
:100DDC0001224FF40041944800F010FD1DE1012266
:100DEC000421904800F00AFD012208218D4800F0F2
:100DFC0005FD01224FF480618A4800F0FFFC0122BE
:100E0C004FF40061874800F0F9FC01224FF4805147
:100E1C00844800F0F3FC00224FF40051814800F0AC
:100E2C00EDFC01224FF480417E4800F0E7FC0122EA
:100E3C004FF400417B4800F0E1FC00224FF480713C
:100E4C00794800F0DBFC01224FF40071764800F089
:100E5C00D5FC01224FF48061734800F0CFFC0122D5
:100E6C004FF40061704800F0C9FC00224FF480512F
:100E7C006D4800F0C3FC01224FF400516A4800F0A9
:100E8C00BDFC01224FF48041674800F0B7FC012201
:100E9C004FF40041644800F0B1FCBEE00122042193
:100EAC00604800F0ABFC012208215E4800F0A6FC73
:100EBC0001224FF480615B4800F0A0FC01224FF44A
:100ECC000061584800F09AFC01224FF480515548BB
:100EDC0000F094FC01224FF40051524800F08EFCBB
:100EEC0000224FF480414F4800F088FC01224FF45F
:100EFC0000414C4800F082FC00224FF480714A48BB
:100F0C0000F07CFC00224FF40071474800F076FCA6
:100F1C0000224FF48061444800F070FC00224FF432
:100F2C000061414800F06AFC00224FF480513E48B9
:100F3C0000F064FC00224FF400513B4800F05EFCD2
:100F4C0000224FF48041384800F058FC00224FF446
:100F5C000041354800F052FC5FE001220421314889
:100F6C0000F04CFC012208212E4800F047FC012225
:100F7C004FF480612B4800F041FC01224FF40061DA
:100F8C00284800F03BFC01224FF48051254800F02A
:100F9C0035FC01224FF40051224800F02FFC0122B5
:100FAC004FF480411F4800F029FC01224FF400410E
:100FBC001C4800F023FC00224FF480711A4800F00A
:100FCC001DFC00224FF40071174800F017FC0022A2
:100FDC004FF48061144800F011FC00224FF40061C2
:100FEC00114800F00BFC00224FF480510E4800F029
:100FFC0005FC00224FF400510B4800F0FFFB0022CF
:10100C004FF48041084800F0F9FB00224FF40041F6
:10101C00054800F0F3FB00E000BF00BF0837BD46F9
:10102C0080BD00BF00080140000C014080B483B0BB
:10103C0000AF7860396007493B687A6841F8232033
:10104C00054A3B68002142F8231000BF0C37BD460F
:10105C0080BC7047280000207000002080B483B052
:10106C0000AF00237B601CE0134A7B6852F82330EE
:10107C00002B13DD104A7B6852F823305A1E0E49A0
:10108C007B6841F823200C4A7B6852F82330002BF4
:10109C0004DC0A4A7B68012142F823107B68013387
:1010AC007B6012227B689342DEDB00BF00BF0C37F3
:1010BC00BD4680BC704700BF280000207000002097
:1010CC0080B485B000AF154B9B69144A43F0010303
:1010DC009361124B9B6903F00103BB60BB680F4B20
:1010EC00DB690E4A43F08053D3610C4BDB6903F090
:1010FC0080537B607B680A4B5B68FB60FB6823F06A
:10110C00E063FB60FB6843F08063FB60044AFB68B0
:10111C00536000BF1437BD4680BC704700100240BE
:10112C000000014080B584B000AF78607B681B681C
:10113C00B3F1804F13D10C4BDB690B4A43F0010325
:10114C00D361094BDB6903F00103FB60FB680022F0
:10115C0000211C2000F0A1F91C2000F0BAF900BFFE
:10116C001037BD4680BD00BF0010024080B400AFF8
:10117C00FEE780B400AFFEE780B400AFFEE780B4BA
:10118C0000AFFEE780B400AFFEE780B400AF00BF55
:10119C00BD4680BC704780B400AF00BFBD4680BC6C
:1011AC00704780B400AF00BFBD4680BC704780B5AF
:1011BC0000AF00F07FF800BF80BD000080B500AF2D
:1011CC00024800F0C5FF00BF80BD00BFB800002082
:1011DC0080B400AF00BFBD4680BC7047FFF7F8FF7E
:1011EC000B480C490C4A002302E0D458C450043379
:1011FC00C4188C42F9D3094A094C002301E013604E
:10120C000432A242FBD301F0EFFAFEF799FF7047CC
:10121C00000000200C000020A02800080C0000207A
:10122C0004010020FEE7000080B500AF084B1B68EE
:10123C00074A43F010031360032000F023F90F203A
:10124C0000F008F8FFF73CFF0023184680BD00BFF4
:10125C000020024080B582B000AF7860124B1A6853
:10126C00124B1B7819464FF47A73B3FBF1F3B2FBB4
:10127C00F3F3184600F03BF90346002B01D0012391
:10128C000EE07B680F2B0AD8002279684FF0FF30F4
:10129C0000F003F9064A7B681360002300E0012389
:1012AC0018460837BD4680BD00000020080000200D
:1012BC000400002080B400AF054B1B781A46054B88
:1012CC001B681344034A136000BFBD4680BC7047C3
:1012DC00080000200001002080B400AF024B1B6806
:1012EC001846BD4680BC70470001002080B485B014
:1012FC0000AF78607B6803F00703FB600C4BDB6886
:10130C00BB60BA684FF6FF031340BB60FB681A0260
:10131C00BB68134343F0BF6343F40033BB60044A20
:10132C00BB68D36000BF1437BD4680BC704700BF9C
:10133C0000ED00E080B400AF044BDB681B0A03F047
:10134C0007031846BD4680BC704700BF00ED00E0A7
:10135C0080B483B000AF0346FB7197F90730002BC4
:10136C000BDBFB7903F01F02064997F907305B0989
:10137C00012000FA02F241F8232000BF0C37BD46D1
:10138C0080BC704700E100E080B483B000AF03463E
:10139C003960FB7197F90730002B0ADB3B68DAB236
:1013AC000C4997F907301201D2B20B4483F8002391
:1013BC000AE03B68DAB20849FB7903F00F03043BFF
:1013CC001201D2B20B441A7600BF0C37BD4680BC5A
:1013DC00704700BF00E100E000ED00E080B489B090
:1013EC0000AFF860B9607A60FB6803F00703FB613B
:1013FC00FB69C3F10703042B28BF0423BB61FB6902
:10140C000433062B02D9FB69033B00E000237B610C
:10141C004FF0FF32BB6902FA03F3DA43BB681A40A0
:10142C007B699A404FF0FF317B6901FA03F3D94392
:10143C007B680B40134318462437BD4680BC70476D
:10144C0080B582B000AF78607B68013BB3F1807FE0
:10145C0001D301230FE00A4A7B68013B53600F2143
:10146C004FF0FF30FFF790FF054B00229A60044BC2
:10147C0007221A60002318460837BD4680BD00BFFE
:10148C0010E000E080B582B000AF78607868FFF7BC
:10149C002DFF00BF0837BD4680BD80B586B000AFBC
:1014AC000346B9607A60FB7300237B61FFF742FF50
:1014BC0078617A68B9687869FFF790FF024697F906
:1014CC000F3011461846FFF75FFF00BF1837BD46B7
:1014DC0080BD80B582B000AF0346FB7197F9073031
:1014EC001846FFF735FF00BF0837BD4680BD80B5F5
:1014FC0082B000AF78607868FFF7A2FF0346184609
:10150C000837BD4680BD000080B48BB000AF78605A
:10151C00396000237B6200233B6248E101227B6A35
:10152C0002FA03F3FB613B681B68FA691340BB6169
:10153C00BA69FB699A4240F037813B685B68A34A01
:10154C0093425ED0A14A934275D8A14A934258D097
:10155C009F4A93426FD89F4A934252D09D4A9342DE
:10156C0069D89D4A93424CD09B4A934263D89B4A7C
:10157C00934246D0994A93425DD8122B2AD8122B0B
:10158C0059D801A252F823F00F160008E9150008EB
:10159C00FB1500083D16000843160008431600080A
:1015AC0043160008431600084316000843160008AB
:1015BC00431600084316000843160008431600089B
:1015CC00431600084316000843160008F1150008DE
:1015DC0005160008824A934213D02CE03B68DB6866
:1015EC003B6229E03B68DB6804333B6224E03B68E8
:1015FC00DB6808333B621FE03B68DB680C333B6203
:10160C001AE03B689B68002B02D104233B6213E079
:10161C003B689B68012B05D108233B627B68FA6908
:10162C001A6109E008233B627B68FA695A6103E09E
:10163C0000233B6200E000BFBB69FF2B01D87B6835
:10164C0001E07B6804337B61BB69FF2B02D87B6AAA
:10165C009B0002E07B6A083B9B003B617B691A683C
:10166C000F213B6901FA03F3DB431A40396A3B69EA
:10167C0001FA03F31A437B691A603B685B6803F059
:10168C008053002B00F09080564B9B69554A43F0D9
:10169C0001039361534B9B6903F00103BB60BB686F
:1016AC00514A7B6A9B08023352F82330FB607B6AF9
:1016BC0003F003039B000F2202FA03F3DB43FA68E7
:1016CC001340FB607B68494A93420DD07B68484AC3
:1016DC00934207D07B68474A934201D1022304E02E
:1016EC00032302E0012300E000237A6A02F00302E4
:1016FC0092009340FA681343FB603B497B6A9B085A
:10170C000233FA6841F823203B685B6803F48013CA
:10171C00002B06D0384B9A683749BB6913438B6052
:10172C0006E0354B9A68BB69DB43334913408B6049
:10173C003B685B6803F40013002B06D02E4BDA6871
:10174C002D49BB691343CB6006E02B4BDA68BB69B0
:10175C00DB4329491340CB603B685B6803F40033DF
:10176C00002B06D0244B5A682349BB6913434B60AA
:10177C0006E0214B5A68BB69DB431F4913404B60A1
:10178C003B685B6803F48033002B06D01A4B1A6855
:10179C001949BB6913430B6006E0174B1A68BB6908
:1017AC00DB43154913400B607B6A01337B623B685A
:1017BC001A687B6A22FA03F3002B7FF4AFAE00BFEA
:1017CC0000BF2C37BD4680BC704700BF00003210F4
:1017DC000000311000002210000021100000121037
:1017EC0000001110001002400000014000080140F0
:1017FC00000C0140001001400004014080B483B093
:10180C0000AF78600B467B8013467B707B78002B97
:10181C0003D07A887B681A6103E07B881A047B68A2
:10182C001A6100BF0C37BD4680BC704780B485B0D0
:10183C0000AF78600B467B807B68DB68FB607A8846
:10184C00FB6813401A04FB68D9437B880B401A438E
:10185C007B681A6100BF1437BD4680BC704700001E
:10186C0080B586B000AF78607B68002B01D1012376
:10187C006CE27B681B6803F00103002B00F087808F
:10188C00924B5B6803F00C03042B0CD08F4B5B6802
:10189C0003F00C03082B12D18C4B5B6803F48033E0
:1018AC00B3F5803F0BD1894B1B6803F40033002B3D
:1018BC006CD07B685B68002B68D1012346E27B68A7
:1018CC005B68B3F5803F06D1804B1B687F4A43F4BD
:1018DC00803313602EE07B685B68002B0CD17B4B54
:1018EC001B687A4A23F480331360784B1B68774A61
:1018FC0023F4802313601DE07B685B68B3F5A02F95
:10190C000CD1724B1B68714A43F4802313606F4BEC
:10191C001B686E4A43F4803313600BE06B4B1B68FF
:10192C006A4A23F480331360684B1B68674A23F4BC
:10193C00802313607B685B68002B13D0FFF7CCFC13
:10194C00386108E0FFF7C8FC02463B69D31A642BE8
:10195C0001D90323FAE15D4B1B6803F40033002B20
:10196C00F0D014E0FFF7B8FC386108E0FFF7B4FCE6
:10197C0002463B69D31A642B01D90323E6E1534B8E
:10198C001B6803F40033002BF0D100E000BF7B6830
:10199C001B6803F00203002B63D04C4B5B6803F015
:1019AC000C03002B0BD0494B5B6803F00C03082B8A
:1019BC001CD1464B5B6803F48033002B16D1434B90
:1019CC001B6803F00203002B05D07B681B69012BFD
:1019DC0001D00123BAE13D4B1B6823F0F8027B6870
:1019EC005B69DB00394913430B603AE07B681B6988
:1019FC00002B20D0364B01221A60FFF76DFC3861AA
:101A0C0008E0FFF769FC02463B69D31A022B01D9A7
:101A1C0003239BE12D4B1B6803F00203002BF0D03A
:101A2C002A4B1B6823F0F8027B685B69DB002749B3
:101A3C0013430B6015E0264B00221A60FFF74CFC99
:101A4C00386108E0FFF748FC02463B69D31A022BC9
:101A5C0001D903237AE11D4B1B6803F00203002B11
:101A6C00F0D17B681B6803F00803002B3AD07B682D
:101A7C009B69002B19D0174B01221A60FFF72CFC25
:101A8C00386108E0FFF728FC02463B69D31A022BA9
:101A9C0001D903235AE10D4B5B6A03F00203002BBF
:101AAC00F0D0012000F09AFA1CE00A4B00221A60D8
:101ABC00FFF712FC38610FE0FFF70EFC02463B69A2
:101ACC00D31A022B08D9032340E100BF00100240B7
:101ADC0000004242800442429E4B5B6A03F00203C8
:101AEC00002BE9D17B681B6803F00403002B00F08A
:101AFC00A6800023FB75974BDB6903F08053002B0A
:101B0C000DD1944BDB69934A43F08053D361914BD5
:101B1C00DB6903F08053BB60BB680123FB758E4B04
:101B2C001B6803F48073002B18D18B4B1B688A4AFB
:101B3C0043F480731360FFF7CFFB386108E0FFF7C5
:101B4C00CBFB02463B69D31A642B01D90323FDE07E
:101B5C00814B1B6803F48073002BF0D07B68DB682F
:101B6C00012B06D17B4B1B6A7A4A43F001031362AB
:101B7C002DE07B68DB68002B0CD1764B1B6A754A19
:101B8C0023F001031362734B1B6A724A23F00403A4
:101B9C0013621CE07B68DB68052B0CD16D4B1B6A58
:101BAC006C4A43F0040313626A4B1B6A694A43F0A4
:101BBC00010313620BE0674B1B6A664A23F00103B7
:101BCC001362644B1B6A634A23F0040313627B6841
:101BDC00DB68002B15D0FFF77FFB38610AE0FFF7BD
:101BEC007BFB02463B69D31A41F28832934201D9FE
:101BFC000323ABE0574B1B6A03F00203002BEED020
:101C0C0014E0FFF769FB38610AE0FFF765FB024659
:101C1C003B69D31A41F28832934201D9032395E0F0
:101C2C004C4B1B6A03F00203002BEED1FB7D012B06
:101C3C0005D1484BDB69474A23F08053D3617B685D
:101C4C00DB69002B00F08180424B5B6803F00C03D6
:101C5C00082B61D07B68DB69022B46D13F4B0022FD
:101C6C001A60FFF739FB386108E0FFF735FB0246D5
:101C7C003B69D31A022B01D9032367E0354B1B6850
:101C8C0003F00073002BF0D17B681B6AB3F5803F27
:101C9C0008D1304B5B6823F400327B689B682D497C
:101CAC0013434B602B4B5B6823F474127B68196AEB
:101CBC007B685B6A0B43274913434B60274B01221C
:101CCC001A60FFF709FB386108E0FFF705FB0246D5
:101CDC003B69D31A022B01D9032337E01D4B1B6838
:101CEC0003F00073002BF0D02FE01C4B00221A6085
:101CFC00FFF7F2FA386108E0FFF7EEFA02463B69AB
:101D0C00D31A022B01D9032320E0124B1B6803F0DA
:101D1C000073002BF0D118E07B68DB69012B01D13B
:101D2C00012313E00B4B5B68FB60FB6803F4803210
:101D3C007B681B6A9A4206D1FB6803F470127B68BD
:101D4C005B6A9A4201D0012300E000231846183741
:101D5C00BD4680BD00100240007000406000424251
:101D6C0080B584B000AF786039607B68002B01D1FE
:101D7C000123D0E06A4B1B6803F007033A689A42D0
:101D8C0010D9674B1B6823F0070265493B68134366
:101D9C000B60634B1B6803F007033A689A4201D04F
:101DAC000123B8E07B681B6803F00203002B20D0F2
:101DBC007B681B6803F00403002B05D0594B5B6850
:101DCC00584A43F4E06353607B681B6803F00803D4
:101DDC00002B05D0534B5B68524A43F4605353605D
:101DEC00504B5B6823F0F0027B689B684D491343B2
:101DFC004B607B681B6803F00103002B40D07B68B1
:101E0C005B68012B07D1474B1B6803F40033002B95
:101E1C0015D101237FE07B685B68022B07D1414B16
:101E2C001B6803F00073002B09D1012373E03D4BB9
:101E3C001B6803F00203002B01D101236BE0394B2B
:101E4C005B6823F003027B685B68364913434B6085
:101E5C00FFF742FAF8600AE0FFF73EFA0246FB6829
:101E6C00D31A41F28832934201D9032353E02D4B0C
:101E7C005B6803F00C027B685B689B009A42EBD1B9
:101E8C00274B1B6803F007033A689A4210D2244B85
:101E9C001B6823F0070222493B6813430B60204B5D
:101EAC001B6803F007033A689A4201D0012332E021
:101EBC007B681B6803F00403002B08D0194B5B688C
:101ECC0023F4E0627B68DB68164913434B607B6844
:101EDC001B6803F00803002B09D0124B5B6823F43A
:101EEC0060527B681B69DB000E4913434B6000F0AA
:101EFC0021F802460B4B5B681B0903F00F030A49E0
:101F0C00CB5C22FA03F3094A1360094B1B68184691
:101F1C00FFF7A0F9002318461037BD4680BD00BF5F
:101F2C00002002400010024074280008000000202D
:101F3C000400002080B487B000AF0023FB600023B6
:101F4C00BB6000237B6100237B6000233B611E4B45
:101F5C005B68FB60FB6803F00C03042B02D0082BBE
:101F6C0003D027E0194B3B6127E0FB689B0C03F087
:101F7C000F03174AD35C7B60FB6803F48033002BA0
:101F8C0010D0114B5B685B0C03F00103114AD35C5E
:101F9C00BB607B680D4A02FB03F2BB68B2FBF3F338
:101FAC007B6104E07B680C4A02FB03F37B617B6979
:101FBC003B6102E0054B3B6100BF3B6918461C3797
:101FCC00BD4680BC704700BF0010024000127A0072
:101FDC00842800089428000800093D0080B485B0CE
:101FEC0000AF78600A4B1B680A4AA2FB03235B0A0A
:101FFC007A6802FB03F3FB6000BFFB685A1EFA60B1
:10200C00002BF9D100BF00BF1437BD4680BC704710
:10201C0000000020D34D621080B582B000AF786014
:10202C007B68002B01D1012341E07B6893F83D30A4
:10203C00DBB2002B06D17B68002283F83C20786849
:10204C00FFF770F87B68022283F83D207B681A68E2
:10205C007B6804331946104600F06EFA7B68012247
:10206C0083F846207B68012283F83E207B6801229E
:10207C0083F83F207B68012283F840207B68012293
:10208C0083F841207B68012283F842207B6801227F
:10209C0083F843207B68012283F844207B6801226B
:1020AC0083F845207B68012283F83D2000231846E5
:1020BC000837BD4680BD000080B485B000AF7860A5
:1020CC007B6893F83D30DBB2012B01D0012335E066
:1020DC007B68022283F83D207B681B68DA687B688A
:1020EC001B6842F00102DA607B681B68164A934257
:1020FC0009D07B681B68B3F1804F04D07B681B68E8
:10210C00124A934211D17B681B689B6803F007034A
:10211C00FB60FB68062B10D07B681B681A687B6819
:10212C001B6842F001021A6007E07B681B681A68A2
:10213C007B681B6842F001021A60002318461437B2
:10214C00BD4680BC704700BF002C0140000400401D
:10215C0080B582B000AF78607B681B681B6903F0A8
:10216C000203022B22D17B681B68DB6803F002039D
:10217C00022B1BD17B681B686FF002021A617B6813
:10218C0001221A777B681B689B6903F00303002B01
:10219C0003D0786800F0B4F905E0786800F0A7F98E
:1021AC00786800F0B6F97B6800221A777B681B68A8
:1021BC001B6903F00403042B22D17B681B68DB68CA
:1021CC0003F00403042B1BD17B681B686FF0040223
:1021DC001A617B6802221A777B681B689B6903F47F
:1021EC004073002B03D0786800F08AF905E078681A
:1021FC0000F07DF9786800F08CF97B6800221A7782
:10220C007B681B681B6903F00803082B22D17B68D1
:10221C001B68DB6803F00803082B1BD17B681B6869
:10222C006FF008021A617B6804221A777B681B68BE
:10223C00DB6903F00303002B03D0786800F060F92E
:10224C0005E0786800F053F9786800F062F97B6873
:10225C0000221A777B681B681B6903F01003102B94
:10226C0022D17B681B68DB6803F01003102B1BD199
:10227C007B681B686FF010021A617B6808221A7762
:10228C007B681B68DB6903F44073002B03D0786810
:10229C0000F036F905E0786800F029F9786800F06C
:1022AC0038F97B6800221A777B681B681B6903F07E
:1022BC000103012B0ED17B681B68DB6803F0010363
:1022CC00012B07D17B681B686FF001021A617868DB
:1022DC00FEF73AF97B681B681B6903F08003802BBF
:1022EC000ED17B681B68DB6803F08003802B07D161
:1022FC007B681B686FF080021A61786800F06BFADB
:10230C007B681B681B6903F04003402B0ED17B6874
:10231C001B68DB6803F04003402B07D17B681B680C
:10232C006FF040021A61786800F0FCF87B681B685B
:10233C001B6903F02003202B0ED17B681B68DB6824
:10234C0003F02003202B07D17B681B686FF0200261
:10235C001A61786800F036FA00BF0837BD4680BDB8
:10236C0080B584B000AF786039600023FB737B6864
:10237C0093F83C30012B01D10223B4E07B6801229D
:10238C0083F83C207B68022283F83D207B681B6825
:10239C009B68BB60BB6823F07703BB60BB6823F40E
:1023AC007F43BB607B681B68BA689A603B681B689C
:1023BC00B3F5005F3ED0B3F5005F00F28780B3F554
:1023CC00805F00F08680B3F5805F7FD8702B1AD0C9
:1023DC00702B7BD8602B50D0602B77D8502B3CD0F7
:1023EC00502B73D8402B58D0402B6FD8302B64D047
:1023FC00302B6BD8202B60D0202B67D8002B5CD0D7
:10240C00102B5AD062E07B6818683B6899683B686F
:10241C005A683B68DB6800F05EF97B681B689B6858
:10242C00BB60BB6843F07703BB607B681B68BA6812
:10243C009A604FE07B6818683B6899683B685A68FB
:10244C003B68DB6800F047F97B681B689A687B681F
:10245C001B6842F480429A603CE07B6818683B68D9
:10246C0059683B68DB681A4600F0BEF87B681B684D
:10247C005021184600F015F92CE07B6818683B6871
:10248C0059683B68DB681A4600F0DCF87B681B680F
:10249C006021184600F005F91CE07B6818683B6861
:1024AC0059683B68DB681A4600F09EF87B681B682D
:1024BC004021184600F0F5F80CE07B681A683B6880
:1024CC001B681946104600F0ECF803E00123FB737F
:1024DC0000E000BF7B68012283F83D207B6800226E
:1024EC0083F83C20FB7B18461037BD4680BD80B47A
:1024FC0083B000AF786000BF0C37BD4680BC70471E
:10250C0080B483B000AF786000BF0C37BD4680BC90
:10251C00704780B483B000AF786000BF0C37BD4605
:10252C0080BC704780B483B000AF786000BF0C37BC
:10253C00BD4680BC7047000080B485B000AF7860A9
:10254C0039607B681B68FB607B68254A934207D027
:10255C007B68B3F1804F03D07B68224A934208D149
:10256C00FB6823F07003FB603B685B68FA681343FD
:10257C00FB607B681A4A934207D07B68B3F1804FAB
:10258C0003D07B68174A934208D1FB6823F440734D
:10259C00FB603B68DB68FA681343FB60FB6823F065
:1025AC0080023B685B691343FB607B68FA681A60C6
:1025BC003B689A687B68DA623B681A687B689A6247
:1025CC007B68074A934203D13B681A697B681A639C
:1025DC007B6801225A6100BF1437BD4680BC70472E
:1025EC00002C01400004004080B487B000AFF860BC
:1025FC00B9607A60FB681B6A7B61FB681B6A23F01D
:10260C000102FB681A62FB689B693B613B6923F022
:10261C00F0033B617B681B013A6913433B617B69A7
:10262C0023F00A037B617A69BB6813437B61FB6807
:10263C003A699A61FB687A691A6200BF1C37BD4619
:10264C0080BC704780B487B000AFF860B9607A6026
:10265C00FB681B6A7B61FB681B6A23F01002FB683A
:10266C001A62FB689B693B613B6923F470433B61D5
:10267C007B681B033A6913433B617B6923F0A0031E
:10268C007B61BB681B017A6913437B61FB683A6908
:10269C009A61FB687A691A6200BF1C37BD4680BC20
:1026AC00704780B485B000AF786039607B689B68F8
:1026BC00FB60FB6823F07003FB603A68FB68134314
:1026CC0043F00703FB607B68FA689A6000BF14371D
:1026DC00BD4680BC704780B487B000AFF860B9606D
:1026EC007A603B60FB689B687B617B6923F47F436A
:1026FC007B613B681A027B681A43BB6813437A6997
:10270C0013437B61FB687A699A6000BF1C37BD4636
:10271C0080BC704780B485B000AF786039607B684E
:10272C0093F83C30012B01D1022341E07B6801225C
:10273C0083F83C207B68022283F83D207B681B6871
:10274C005B68FB607B681B689B68BB60FB6823F065
:10275C007003FB603B681B68FA681343FB607B6883
:10276C001B68FA685A607B681B68144A934209D04C
:10277C007B681B68B3F1804F04D07B681B68104AE0
:10278C0093420CD1BB6823F08003BB603B685B6851
:10279C00BA681343BB607B681B68BA689A607B6835
:1027AC00012283F83D207B68002283F83C20002323
:1027BC0018461437BD4680BC704700BF002C014042
:1027CC000004004080B483B000AF786000BF0C37C9
:1027DC00BD4680BC704780B483B000AF786000BF4A
:1027EC000C37BD4680BC704770B500260C4D0D4CA7
:1027FC00641BA410A64209D100F022F800260A4D51
:10280C000A4C641BA410A64205D170BD55F8043BBC
:10281C0098470136EEE755F8043B98470136F2E746
:10282C009828000898280008982800089C28000878
:10283C0003460244934200D1704703F8011BF9E7A9
:10284C00F8B500BFF8BC08BC9E467047F8B500BF91
:08285C00F8BC08BC9E46704761
:10286400010000000200000003000000040000005A
:10287400000000000000000001020304060708092C
:1028840002030405060708090A0B0C0D0E0F1010AD
:04289400010200003D
:042898003101000802
:04289C000D01000822
:0C28A0000024F400100000000100000003
:04000005080011E9F5
:00000001FF
